{
  "_format": "hh-sol-artifact-1",
  "contractName": "GoldHunter",
  "sourceName": "contracts/GoldHunter.sol",
  "abi": [
    {
      "inputs": [],
      "stateMutability": "nonpayable",
      "type": "constructor"
    },
    {
      "anonymous": false,
      "inputs": [
        {
          "indexed": true,
          "internalType": "address",
          "name": "owner",
          "type": "address"
        },
        {
          "indexed": true,
          "internalType": "address",
          "name": "approved",
          "type": "address"
        },
        {
          "indexed": true,
          "internalType": "uint256",
          "name": "tokenId",
          "type": "uint256"
        }
      ],
      "name": "Approval",
      "type": "event"
    },
    {
      "anonymous": false,
      "inputs": [
        {
          "indexed": true,
          "internalType": "address",
          "name": "owner",
          "type": "address"
        },
        {
          "indexed": true,
          "internalType": "address",
          "name": "operator",
          "type": "address"
        },
        {
          "indexed": false,
          "internalType": "bool",
          "name": "approved",
          "type": "bool"
        }
      ],
      "name": "ApprovalForAll",
      "type": "event"
    },
    {
      "anonymous": false,
      "inputs": [
        {
          "indexed": true,
          "internalType": "address",
          "name": "previousOwner",
          "type": "address"
        },
        {
          "indexed": true,
          "internalType": "address",
          "name": "newOwner",
          "type": "address"
        }
      ],
      "name": "OwnershipTransferred",
      "type": "event"
    },
    {
      "anonymous": false,
      "inputs": [
        {
          "indexed": false,
          "internalType": "address",
          "name": "owner",
          "type": "address"
        },
        {
          "indexed": false,
          "internalType": "uint16",
          "name": "tokenId",
          "type": "uint16"
        },
        {
          "indexed": false,
          "internalType": "address",
          "name": "thief",
          "type": "address"
        }
      ],
      "name": "TokenStolen",
      "type": "event"
    },
    {
      "anonymous": false,
      "inputs": [
        {
          "indexed": true,
          "internalType": "address",
          "name": "from",
          "type": "address"
        },
        {
          "indexed": true,
          "internalType": "address",
          "name": "to",
          "type": "address"
        },
        {
          "indexed": true,
          "internalType": "uint256",
          "name": "tokenId",
          "type": "uint256"
        }
      ],
      "name": "Transfer",
      "type": "event"
    },
    {
      "inputs": [],
      "name": "MAX_TOKENS",
      "outputs": [
        {
          "internalType": "uint256",
          "name": "",
          "type": "uint256"
        }
      ],
      "stateMutability": "view",
      "type": "function"
    },
    {
      "inputs": [],
      "name": "MINT_PER_TX_LIMIT",
      "outputs": [
        {
          "internalType": "uint256",
          "name": "",
          "type": "uint256"
        }
      ],
      "stateMutability": "view",
      "type": "function"
    },
    {
      "inputs": [
        {
          "internalType": "uint16",
          "name": "_from",
          "type": "uint16"
        },
        {
          "internalType": "uint16",
          "name": "_to",
          "type": "uint16"
        }
      ],
      "name": "addAvailableTokens",
      "outputs": [],
      "stateMutability": "nonpayable",
      "type": "function"
    },
    {
      "inputs": [
        {
          "internalType": "address",
          "name": "to",
          "type": "address"
        },
        {
          "internalType": "uint256",
          "name": "tokenId",
          "type": "uint256"
        }
      ],
      "name": "approve",
      "outputs": [],
      "stateMutability": "nonpayable",
      "type": "function"
    },
    {
      "inputs": [
        {
          "internalType": "address",
          "name": "owner",
          "type": "address"
        }
      ],
      "name": "balanceOf",
      "outputs": [
        {
          "internalType": "uint256",
          "name": "",
          "type": "uint256"
        }
      ],
      "stateMutability": "view",
      "type": "function"
    },
    {
      "inputs": [
        {
          "internalType": "uint16",
          "name": "_id",
          "type": "uint16"
        },
        {
          "internalType": "address",
          "name": "_address",
          "type": "address"
        }
      ],
      "name": "changeRandomSource",
      "outputs": [],
      "stateMutability": "nonpayable",
      "type": "function"
    },
    {
      "inputs": [
        {
          "internalType": "uint16",
          "name": "_season",
          "type": "uint16"
        },
        {
          "internalType": "uint256",
          "name": "_weiPrice",
          "type": "uint256"
        }
      ],
      "name": "changeSeasonPrice",
      "outputs": [],
      "stateMutability": "nonpayable",
      "type": "function"
    },
    {
      "inputs": [
        {
          "internalType": "uint256",
          "name": "tokenId",
          "type": "uint256"
        }
      ],
      "name": "getApproved",
      "outputs": [
        {
          "internalType": "address",
          "name": "",
          "type": "address"
        }
      ],
      "stateMutability": "view",
      "type": "function"
    },
    {
      "inputs": [
        {
          "internalType": "uint256",
          "name": "_amount",
          "type": "uint256"
        },
        {
          "internalType": "address",
          "name": "_address",
          "type": "address"
        }
      ],
      "name": "giveAway",
      "outputs": [],
      "stateMutability": "nonpayable",
      "type": "function"
    },
    {
      "inputs": [],
      "name": "gold",
      "outputs": [
        {
          "internalType": "contract IGGold",
          "name": "",
          "type": "address"
        }
      ],
      "stateMutability": "view",
      "type": "function"
    },
    {
      "inputs": [],
      "name": "goldMinerStolen",
      "outputs": [
        {
          "internalType": "uint16",
          "name": "",
          "type": "uint16"
        }
      ],
      "stateMutability": "view",
      "type": "function"
    },
    {
      "inputs": [
        {
          "internalType": "address",
          "name": "owner",
          "type": "address"
        },
        {
          "internalType": "address",
          "name": "operator",
          "type": "address"
        }
      ],
      "name": "isApprovedForAll",
      "outputs": [
        {
          "internalType": "bool",
          "name": "",
          "type": "bool"
        }
      ],
      "stateMutability": "view",
      "type": "function"
    },
    {
      "inputs": [
        {
          "internalType": "uint16",
          "name": "id",
          "type": "uint16"
        }
      ],
      "name": "isPirate",
      "outputs": [
        {
          "internalType": "bool",
          "name": "",
          "type": "bool"
        }
      ],
      "stateMutability": "view",
      "type": "function"
    },
    {
      "inputs": [
        {
          "internalType": "uint256",
          "name": "_amount",
          "type": "uint256"
        },
        {
          "internalType": "bool",
          "name": "_stake",
          "type": "bool"
        }
      ],
      "name": "mint",
      "outputs": [],
      "stateMutability": "payable",
      "type": "function"
    },
    {
      "inputs": [
        {
          "internalType": "uint256",
          "name": "_amount",
          "type": "uint256"
        }
      ],
      "name": "mintPrice",
      "outputs": [
        {
          "internalType": "uint256",
          "name": "",
          "type": "uint256"
        }
      ],
      "stateMutability": "view",
      "type": "function"
    },
    {
      "inputs": [],
      "name": "name",
      "outputs": [
        {
          "internalType": "string",
          "name": "",
          "type": "string"
        }
      ],
      "stateMutability": "view",
      "type": "function"
    },
    {
      "inputs": [],
      "name": "owner",
      "outputs": [
        {
          "internalType": "address",
          "name": "",
          "type": "address"
        }
      ],
      "stateMutability": "view",
      "type": "function"
    },
    {
      "inputs": [
        {
          "internalType": "uint256",
          "name": "tokenId",
          "type": "uint256"
        }
      ],
      "name": "ownerOf",
      "outputs": [
        {
          "internalType": "address",
          "name": "",
          "type": "address"
        }
      ],
      "stateMutability": "view",
      "type": "function"
    },
    {
      "inputs": [],
      "name": "paused",
      "outputs": [
        {
          "internalType": "bool",
          "name": "",
          "type": "bool"
        }
      ],
      "stateMutability": "view",
      "type": "function"
    },
    {
      "inputs": [],
      "name": "pirateMinted",
      "outputs": [
        {
          "internalType": "uint16",
          "name": "",
          "type": "uint16"
        }
      ],
      "stateMutability": "view",
      "type": "function"
    },
    {
      "inputs": [],
      "name": "pirateStolen",
      "outputs": [
        {
          "internalType": "uint16",
          "name": "",
          "type": "uint16"
        }
      ],
      "stateMutability": "view",
      "type": "function"
    },
    {
      "inputs": [],
      "name": "renounceOwnership",
      "outputs": [],
      "stateMutability": "nonpayable",
      "type": "function"
    },
    {
      "inputs": [
        {
          "internalType": "address",
          "name": "from",
          "type": "address"
        },
        {
          "internalType": "address",
          "name": "to",
          "type": "address"
        },
        {
          "internalType": "uint256",
          "name": "tokenId",
          "type": "uint256"
        }
      ],
      "name": "safeTransferFrom",
      "outputs": [],
      "stateMutability": "nonpayable",
      "type": "function"
    },
    {
      "inputs": [
        {
          "internalType": "address",
          "name": "from",
          "type": "address"
        },
        {
          "internalType": "address",
          "name": "to",
          "type": "address"
        },
        {
          "internalType": "uint256",
          "name": "tokenId",
          "type": "uint256"
        },
        {
          "internalType": "bytes",
          "name": "_data",
          "type": "bytes"
        }
      ],
      "name": "safeTransferFrom",
      "outputs": [],
      "stateMutability": "nonpayable",
      "type": "function"
    },
    {
      "inputs": [],
      "name": "season",
      "outputs": [
        {
          "internalType": "uint16",
          "name": "",
          "type": "uint16"
        }
      ],
      "stateMutability": "view",
      "type": "function"
    },
    {
      "inputs": [
        {
          "internalType": "uint16",
          "name": "",
          "type": "uint16"
        }
      ],
      "name": "seasonPrice",
      "outputs": [
        {
          "internalType": "uint256",
          "name": "",
          "type": "uint256"
        }
      ],
      "stateMutability": "view",
      "type": "function"
    },
    {
      "inputs": [
        {
          "internalType": "address",
          "name": "operator",
          "type": "address"
        },
        {
          "internalType": "bool",
          "name": "approved",
          "type": "bool"
        }
      ],
      "name": "setApprovalForAll",
      "outputs": [],
      "stateMutability": "nonpayable",
      "type": "function"
    },
    {
      "inputs": [
        {
          "internalType": "string",
          "name": "uri",
          "type": "string"
        }
      ],
      "name": "setBaseURI",
      "outputs": [],
      "stateMutability": "nonpayable",
      "type": "function"
    },
    {
      "inputs": [
        {
          "internalType": "address",
          "name": "_gold",
          "type": "address"
        }
      ],
      "name": "setGold",
      "outputs": [],
      "stateMutability": "nonpayable",
      "type": "function"
    },
    {
      "inputs": [
        {
          "internalType": "bool",
          "name": "_state",
          "type": "bool"
        }
      ],
      "name": "setPaused",
      "outputs": [],
      "stateMutability": "nonpayable",
      "type": "function"
    },
    {
      "inputs": [
        {
          "internalType": "uint16",
          "name": "id",
          "type": "uint16"
        },
        {
          "internalType": "bool",
          "name": "special",
          "type": "bool"
        }
      ],
      "name": "setPirateId",
      "outputs": [],
      "stateMutability": "nonpayable",
      "type": "function"
    },
    {
      "inputs": [
        {
          "internalType": "uint16[]",
          "name": "ids",
          "type": "uint16[]"
        }
      ],
      "name": "setPirateIds",
      "outputs": [],
      "stateMutability": "nonpayable",
      "type": "function"
    },
    {
      "inputs": [
        {
          "internalType": "address",
          "name": "_island",
          "type": "address"
        }
      ],
      "name": "setTreasureIsland",
      "outputs": [],
      "stateMutability": "nonpayable",
      "type": "function"
    },
    {
      "inputs": [
        {
          "internalType": "uint256",
          "name": "_seed",
          "type": "uint256"
        },
        {
          "internalType": "uint256",
          "name": "_max",
          "type": "uint256"
        }
      ],
      "name": "shuffleSeeds",
      "outputs": [],
      "stateMutability": "nonpayable",
      "type": "function"
    },
    {
      "inputs": [
        {
          "internalType": "bytes4",
          "name": "interfaceId",
          "type": "bytes4"
        }
      ],
      "name": "supportsInterface",
      "outputs": [
        {
          "internalType": "bool",
          "name": "",
          "type": "bool"
        }
      ],
      "stateMutability": "view",
      "type": "function"
    },
    {
      "inputs": [
        {
          "internalType": "uint16",
          "name": "_season",
          "type": "uint16"
        },
        {
          "internalType": "bool",
          "name": "_setTokens",
          "type": "bool"
        }
      ],
      "name": "switchToSaleSeason",
      "outputs": [],
      "stateMutability": "nonpayable",
      "type": "function"
    },
    {
      "inputs": [],
      "name": "symbol",
      "outputs": [
        {
          "internalType": "string",
          "name": "",
          "type": "string"
        }
      ],
      "stateMutability": "view",
      "type": "function"
    },
    {
      "inputs": [
        {
          "internalType": "uint256",
          "name": "tokenId",
          "type": "uint256"
        }
      ],
      "name": "tokenURI",
      "outputs": [
        {
          "internalType": "string",
          "name": "",
          "type": "string"
        }
      ],
      "stateMutability": "view",
      "type": "function"
    },
    {
      "inputs": [],
      "name": "tokensMinted",
      "outputs": [
        {
          "internalType": "uint256",
          "name": "",
          "type": "uint256"
        }
      ],
      "stateMutability": "view",
      "type": "function"
    },
    {
      "inputs": [],
      "name": "totalSupply",
      "outputs": [
        {
          "internalType": "uint256",
          "name": "",
          "type": "uint256"
        }
      ],
      "stateMutability": "view",
      "type": "function"
    },
    {
      "inputs": [
        {
          "internalType": "address",
          "name": "from",
          "type": "address"
        },
        {
          "internalType": "address",
          "name": "to",
          "type": "address"
        },
        {
          "internalType": "uint256",
          "name": "tokenId",
          "type": "uint256"
        }
      ],
      "name": "transferFrom",
      "outputs": [],
      "stateMutability": "nonpayable",
      "type": "function"
    },
    {
      "inputs": [
        {
          "internalType": "address",
          "name": "newOwner",
          "type": "address"
        }
      ],
      "name": "transferOwnership",
      "outputs": [],
      "stateMutability": "nonpayable",
      "type": "function"
    },
    {
      "inputs": [],
      "name": "treasureIsland",
      "outputs": [
        {
          "internalType": "contract ITreasureIsland",
          "name": "",
          "type": "address"
        }
      ],
      "stateMutability": "view",
      "type": "function"
    },
    {
      "inputs": [
        {
          "internalType": "address",
          "name": "to",
          "type": "address"
        }
      ],
      "name": "withdraw",
      "outputs": [],
      "stateMutability": "nonpayable",
      "type": "function"
    }
  ],
  "bytecode": "0x6127106007556000600855600980546001600160481b0319166801000000000000000117905560e0604052602660808181529062003a8260a03980516200004f91600d9160209091019062000887565b506010805461ffff1916905560006011553480156200006d57600080fd5b50604080518082018252600a81526923b7b632243ab73a32b960b11b60208083019182528351808501909452600584526408e9e9888960db1b908401528151919291620000bd9160009162000887565b508051620000d390600190602084019062000887565b505050620000f0620000ea6200039760201b60201c565b6200039b565b620000fd336000620003ed565b60016008600082825462000112919062000943565b9091555062000125905060018062000413565b66f8b0a10e4700007fbbc70db1b6c7afd11e79c0fb0051300458f1a3acb8ee9789d9b6b26c61ad9bc755671bc16d674ec800007fbff4442b8ed600beeb8e26b1279a0f0d14c6edfaec26d968ee13c86f7d4c2ba855673782dace9d9000007fa856840544dc26124927add067d799967eac11be13e14d82cc281ea46fa3975955676f05b59d3b2000007fe1eb2b2161a492c07c5a334e48012567cba93ec021043f53c1955516a3c5a8415560126020527f7e7fa33969761a458e04f477e039a608702b4f924981d6653935a8319a08ad7b80546001600160a01b031990811673c02aaa39b223fe8d0a0e5c4f27ead9083c756cc2179091557f71a67924699a20698523213e55fe499d539379d7769cd5567e2c45d583f815a380548216733cd751e6b0078be393132286c442345e5dc496991790557f8e1fee8c88a9e04123b21e90cae2727a7715bf522a1e46eb5934ccd05203a6b28054821673b5d85cbf7cb3ee0d56b3bb207d5fc4b82f43f5111790557f0f36ad39aee03e7108cc48f54934702a5f0d4066f10344cebf8198978d86976a8054821673c098b2a3aa256d2140208c3de6543aaef5cd3a941790557fb4fcd034df3d20faa1c133b66d862ce92732727d40916b48ffb4020cb00fe053805482167328c6c06298d514db089934071355e5743bf21d601790557f45429b9195d4ec5c0cf6c69e9c21a4ca0ea773b702c2de5735f85d2631f2674680548216732faf487a4414fe77e2327f0bf4ae2a264a776ad217905560066000527f1223f9031f9dca49a7844c397098ce9a4e80513444d0a8bb59820dff564808e4805490911673267be1c1d684f78cb4f6a176c4911b741e4ffdc017905562000aea565b3390565b600680546001600160a01b038381166001600160a01b0319831681179093556040519116919082907f8be0079c531659141344cd1fd0a4f28419497f9722a3daafe3b4186f6b6457e090600090a35050565b6200040f828260405180602001604052806000815250620004de60201b60201c565b5050565b6006546001600160a01b03163314620004735760405162461bcd60e51b815260206004820181905260248201527f4f776e61626c653a2063616c6c6572206973206e6f7420746865206f776e657260448201526064015b60405180910390fd5b6009805461ffff191661ffff8416179055806200048e575050565b6009546200040f90620004a89060019061ffff166200095e565b620004b69061138862000984565b620004c3906001620009b1565b600954620004d89061ffff1661138862000984565b62000556565b620004ea8383620005d0565b620004f9600084848462000718565b620005515760405162461bcd60e51b8152602060048201526032602482015260008051602062003a6283398151915260448201527131b2b4bb32b91034b6b83632b6b2b73a32b960711b60648201526084016200046a565b505050565b815b8161ffff168161ffff16116200055157600f805460018101825560008290527f8d1108e10bcb7c27dddfc02ed9d693a074039d026cf4ea4240b40f7d581ac80260108204018054919092166002026101000a61ffff818102199092169184160217905580620005c781620009da565b91505062000558565b6001600160a01b038216620006285760405162461bcd60e51b815260206004820181905260248201527f4552433732313a206d696e7420746f20746865207a65726f206164647265737360448201526064016200046a565b6000818152600260205260409020546001600160a01b0316156200068f5760405162461bcd60e51b815260206004820152601c60248201527f4552433732313a20746f6b656e20616c7265616479206d696e7465640000000060448201526064016200046a565b6001600160a01b0382166000908152600360205260408120805460019290620006ba90849062000943565b909155505060008181526002602052604080822080546001600160a01b0319166001600160a01b03861690811790915590518392907fddf252ad1be2c89b69c2b068fc378daa952ba7f163c4a11628f55a4df523b3ef908290a45050565b600062000739846001600160a01b03166200088160201b620019f91760201c565b156200087557604051630a85bd0160e11b81526001600160a01b0385169063150b7a029062000773903390899088908890600401620009ff565b602060405180830381600087803b1580156200078e57600080fd5b505af1925050508015620007c1575060408051601f3d908101601f19168201909252620007be9181019062000a7a565b60015b6200085a573d808015620007f2576040519150601f19603f3d011682016040523d82523d6000602084013e620007f7565b606091505b508051620008525760405162461bcd60e51b8152602060048201526032602482015260008051602062003a6283398151915260448201527131b2b4bb32b91034b6b83632b6b2b73a32b960711b60648201526084016200046a565b805181602001fd5b6001600160e01b031916630a85bd0160e11b14905062000879565b5060015b949350505050565b3b151590565b828054620008959062000aad565b90600052602060002090601f016020900481019282620008b9576000855562000904565b82601f10620008d457805160ff191683800117855562000904565b8280016001018555821562000904579182015b8281111562000904578251825591602001919060010190620008e7565b506200091292915062000916565b5090565b5b8082111562000912576000815560010162000917565b634e487b7160e01b600052601160045260246000fd5b600082198211156200095957620009596200092d565b500190565b600061ffff838116908316818110156200097c576200097c6200092d565b039392505050565b600061ffff80831681851681830481118215151615620009a857620009a86200092d565b02949350505050565b600061ffff808316818516808303821115620009d157620009d16200092d565b01949350505050565b600061ffff80831681811415620009f557620009f56200092d565b6001019392505050565b600060018060a01b038087168352602081871681850152856040850152608060608501528451915081608085015260005b8281101562000a4e5785810182015185820160a00152810162000a30565b8281111562000a6157600060a084870101525b5050601f01601f19169190910160a00195945050505050565b60006020828403121562000a8d57600080fd5b81516001600160e01b03198116811462000aa657600080fd5b9392505050565b600181811c9082168062000ac257607f821691505b6020821081141562000ae457634e487b7160e01b600052602260045260246000fd5b50919050565b612f688062000afa6000396000f3fe6080604052600436106102675760003560e01c80636de9f32b11610144578063b88d4fde116100b6578063e6a72acf1161007a578063e6a72acf14610759578063e985e9c514610779578063efb3d008146107c2578063f2fde38b146107e2578063f47c84c514610802578063fbec6f211461081857600080fd5b8063b88d4fde146106b0578063c0eb77f2146106d0578063c50b0fb0146106fd578063c87b56dd14610718578063cb7e93d21461073857600080fd5b806386b854c81161010857806386b854c8146105f85780638da5cb5b1461061857806392b242291461063657806395d89b4114610656578063a22cb4651461066b578063b488b6361461068b57600080fd5b80636de9f32b1461056d578063703731731461058357806370a08231146105a3578063715018a6146105c35780637e603d42146105d857600080fd5b8063268e00a3116101dd57806351cff8d9116101a157806351cff8d9146104bb57806355f804b3146104db5780635a8cf9de146104fb5780635c975abb1461051b5780636352211e1461053a57806367f68fac1461055a57600080fd5b8063268e00a3146103fc5780632c12395b1461043257806340ce8d8a1461046657806342842e0e1461048657806345d51007146104a657600080fd5b806316c38b3c1161022f57806316c38b3c1461033d57806318160ddd1461035d5780631adbc5501461037c5780631f60371f1461039c57806323b872dd146103bc578063261d3b21146103dc57600080fd5b806301ffc9a71461026c5780630520b708146102a157806306fdde03146102c3578063081812fc146102e5578063095ea7b31461031d575b600080fd5b34801561027857600080fd5b5061028c61028736600461268e565b610838565b60405190151581526020015b60405180910390f35b3480156102ad57600080fd5b506102c16102bc3660046126c0565b61088a565b005b3480156102cf57600080fd5b506102d86108df565b6040516102989190612735565b3480156102f157600080fd5b50610305610300366004612748565b610971565b6040516001600160a01b039091168152602001610298565b34801561032957600080fd5b506102c1610338366004612761565b610a06565b34801561034957600080fd5b506102c161035836600461279d565b610b1c565b34801561036957600080fd5b506008545b604051908152602001610298565b34801561038857600080fd5b506102c16103973660046127ca565b610b69565b3480156103a857600080fd5b506102c16103b73660046127ca565b610bb9565b3480156103c857600080fd5b506102c16103d73660046127fd565b610c47565b3480156103e857600080fd5b506102c16103f736600461283e565b610c93565b34801561040857600080fd5b5060095461041f90640100000000900461ffff1681565b60405161ffff9091168152602001610298565b34801561043e57600080fd5b5061028c61044d36600461286e565b61ffff166000908152600e602052604090205460ff1690565b34801561047257600080fd5b50600b54610305906001600160a01b031681565b34801561049257600080fd5b506102c16104a13660046127fd565b610d67565b3480156104b257600080fd5b5061036e601481565b3480156104c757600080fd5b506102c16104d63660046126c0565b610d82565b3480156104e757600080fd5b506102c16104f6366004612915565b610e50565b34801561050757600080fd5b506102c161051636600461295e565b610e8d565b34801561052757600080fd5b50600954600160401b900460ff1661028c565b34801561054657600080fd5b50610305610555366004612748565b610ece565b6102c161056836600461297a565b610f45565b34801561057957600080fd5b5061036e60085481565b34801561058f57600080fd5b506102c161059e36600461299d565b611573565b3480156105af57600080fd5b5061036e6105be3660046126c0565b61160a565b3480156105cf57600080fd5b506102c1611691565b3480156105e457600080fd5b506102c16105f33660046126c0565b6116c7565b34801561060457600080fd5b506102c1610613366004612a12565b611713565b34801561062457600080fd5b506006546001600160a01b0316610305565b34801561064257600080fd5b506102c1610651366004612a3e565b611771565b34801561066257600080fd5b506102d86117e3565b34801561067757600080fd5b506102c1610686366004612a60565b6117f2565b34801561069757600080fd5b5060095461041f906601000000000000900461ffff1681565b3480156106bc57600080fd5b506102c16106cb366004612a7e565b6117fd565b3480156106dc57600080fd5b5061036e6106eb36600461286e565b600a6020526000908152604090205481565b34801561070957600080fd5b5060095461041f9061ffff1681565b34801561072457600080fd5b506102d8610733366004612748565b61182f565b34801561074457600080fd5b5060095461041f9062010000900461ffff1681565b34801561076557600080fd5b5061036e610774366004612748565b61190a565b34801561078557600080fd5b5061028c610794366004612afe565b6001600160a01b03918216600090815260056020908152604080832093909416825291909152205460ff1690565b3480156107ce57600080fd5b506102c16107dd366004612b1c565b61192a565b3480156107ee57600080fd5b506102c16107fd3660046126c0565b61195e565b34801561080e57600080fd5b5061036e60075481565b34801561082457600080fd5b50600c54610305906001600160a01b031681565b60006001600160e01b031982166380ac58cd60e01b148061086957506001600160e01b03198216635b5e139f60e01b145b8061088457506301ffc9a760e01b6001600160e01b03198316145b92915050565b6006546001600160a01b031633146108bd5760405162461bcd60e51b81526004016108b490612b46565b60405180910390fd5b600c80546001600160a01b0319166001600160a01b0392909216919091179055565b6060600080546108ee90612b7b565b80601f016020809104026020016040519081016040528092919081815260200182805461091a90612b7b565b80156109675780601f1061093c57610100808354040283529160200191610967565b820191906000526020600020905b81548152906001019060200180831161094a57829003601f168201915b5050505050905090565b6000818152600260205260408120546001600160a01b03166109ea5760405162461bcd60e51b815260206004820152602c60248201527f4552433732313a20617070726f76656420717565727920666f72206e6f6e657860448201526b34b9ba32b73a103a37b5b2b760a11b60648201526084016108b4565b506000908152600460205260409020546001600160a01b031690565b6000610a1182610ece565b9050806001600160a01b0316836001600160a01b03161415610a7f5760405162461bcd60e51b815260206004820152602160248201527f4552433732313a20617070726f76616c20746f2063757272656e74206f776e656044820152603960f91b60648201526084016108b4565b336001600160a01b0382161480610a9b5750610a9b8133610794565b610b0d5760405162461bcd60e51b815260206004820152603860248201527f4552433732313a20617070726f76652063616c6c6572206973206e6f74206f7760448201527f6e6572206e6f7220617070726f76656420666f7220616c6c000000000000000060648201526084016108b4565b610b1783836119ff565b505050565b6006546001600160a01b03163314610b465760405162461bcd60e51b81526004016108b490612b46565b60098054911515600160401b0268ff000000000000000019909216919091179055565b6006546001600160a01b03163314610b935760405162461bcd60e51b81526004016108b490612b46565b61ffff919091166000908152600e60205260409020805460ff1916911515919091179055565b6006546001600160a01b03163314610be35760405162461bcd60e51b81526004016108b490612b46565b6009805461ffff191661ffff841617905580610bfd575050565b600954610c4390610c149060019061ffff16612bcc565b610c2090611388612bef565b610c2b906001612c19565b600954610c3e9061ffff16611388612bef565b611a6d565b5050565b600b546001600160a01b0316336001600160a01b031614610c8857610c6c3382611ae3565b610c885760405162461bcd60e51b81526004016108b490612c3f565b610b17838383611bda565b6006546001600160a01b03163314610cbd5760405162461bcd60e51b81526004016108b490612b46565b60075482600854610cce9190612c90565b1115610d105760405162461bcd60e51b8152602060048201526011602482015270105b1b081d1bdad95b9cc81b5a5b9d1959607a1b60448201526064016108b4565b600f54610d2f5760405162461bcd60e51b81526004016108b490612ca8565b60005b82811015610b17576000610d44611d7a565b9050610d54838261ffff16611e9a565b5080610d5f81612cf3565b915050610d32565b610b17838383604051806020016040528060008152506117fd565b6006546001600160a01b03163314610dac5760405162461bcd60e51b81526004016108b490612b46565b4760006064610dbc836014612d0e565b610dc69190612d43565b604051909150734f56bc08d5d75ed0252d6de31896a9f4f4d6dbc79082156108fc029083906000818181858888f19350505050158015610e0a573d6000803e3d6000fd5b506001600160a01b0383166108fc610e228385612d57565b6040518115909202916000818181858888f19350505050158015610e4a573d6000803e3d6000fd5b50505050565b6006546001600160a01b03163314610e7a5760405162461bcd60e51b81526004016108b490612b46565b8051610c4390600d9060208401906125df565b6006546001600160a01b03163314610eb75760405162461bcd60e51b81526004016108b490612b46565b61ffff9091166000908152600a6020526040902055565b6000818152600260205260408120546001600160a01b0316806108845760405162461bcd60e51b815260206004820152602960248201527f4552433732313a206f776e657220717565727920666f72206e6f6e657869737460448201526832b73a103a37b5b2b760b91b60648201526084016108b4565b600954600160401b900460ff1615610f925760405162461bcd60e51b815260206004820152601060248201526f14185d5cd8589b194e881c185d5cd95960821b60448201526064016108b4565b323314610fcc5760405162461bcd60e51b81526020600482015260086024820152674f6e6c7920454f4160c01b60448201526064016108b4565b60075482600854610fdd9190612c90565b111561101f5760405162461bcd60e51b8152602060048201526011602482015270105b1b081d1bdad95b9cc81b5a5b9d1959607a1b60448201526064016108b4565b600082118015611030575060148211155b6110725760405162461bcd60e51b8152602060048201526013602482015272125b9d985b1a59081b5a5b9d08185b5bdd5b9d606a1b60448201526064016108b4565b600f546110915760405162461bcd60e51b81526004016108b490612ca8565b60095460009061ffff16600114156110f857346110ad8461190a565b146110f35760405162461bcd60e51b8152602060048201526016602482015275125b9d985b1a59081c185e5b595b9d08185b5bdd5b9d60521b60448201526064016108b4565b611210565b34156111465760405162461bcd60e51b815260206004820152601d60248201527f4e6f77206d696e74696e6720697320646f6e65207669612050656e6e7900000060448201526064016108b4565b61114f8361190a565b600c546040516370a0823160e01b815233600482015291925082916001600160a01b03909116906370a082319060240160206040518083038186803b15801561119757600080fd5b505afa1580156111ab573d6000803e3d6000fd5b505050506040513d601f19601f820116820180604052508101906111cf9190612d6e565b10156112105760405162461bcd60e51b815260206004820152601060248201526f4e6f7420656e6f7567682050656e6e7960801b60448201526064016108b4565b801561127b57600c54604051632770a7eb60e21b8152336004820152602481018390526001600160a01b0390911690639dc29fac90604401600060405180830381600087803b15801561126257600080fd5b505af1158015611276573d6000803e3d6000fd5b505050505b826008600082825461128d9190612c90565b9091555060009050826112ae576040805160008152602081019091526112f2565b8367ffffffffffffffff8111156112c7576112c7612889565b6040519080825280602002602001820160405280156112f0578160200160208202803683370190505b505b905060005b84811015611502576000611309611eb4565b60095490915061ffff1660011461132257611322611f92565b600061132c611d7a565b905061134b8161ffff166000908152600e602052604090205460ff1690565b1561138b576001600960068282829054906101000a900461ffff166113709190612c19565b92506101000a81548161ffff021916908361ffff1602179055505b6001600160a01b038216331461147b5761ffff81166000908152600e602052604090205460ff166113f4576001600960048282829054906101000a900461ffff166113d69190612c19565b92506101000a81548161ffff021916908361ffff160217905561142e565b6001600960028282829054906101000a900461ffff166114149190612c19565b92506101000a81548161ffff021916908361ffff16021790555b506040805133815261ffff831660208201526001600160a01b0384168183015290517f5c8f955114cce6fe18920ee4bb38271b9a0f5579589f3767ccf22eb6484e06109181900360600190a15b85158061149157506001600160a01b0382163314155b156114a9576114a4828261ffff16611e9a565b6114ed565b600b546114c3906001600160a01b031661ffff8316611e9a565b808484815181106114d6576114d6612d87565b602002602001019061ffff16908161ffff16815250505b505080806114fa90612cf3565b9150506112f7565b508215610e4a57600b5460405163710fa65f60e11b81526001600160a01b039091169063e21f4cbe9061153b9033908590600401612d9d565b600060405180830381600087803b15801561155557600080fd5b505af1158015611569573d6000803e3d6000fd5b5050505050505050565b6006546001600160a01b0316331461159d5760405162461bcd60e51b81526004016108b490612b46565b60005b81811015610b17576001600e60008585858181106115c0576115c0612d87565b90506020020160208101906115d5919061286e565b61ffff1681526020810191909152604001600020805460ff19169115159190911790558061160281612cf3565b9150506115a0565b60006001600160a01b0382166116755760405162461bcd60e51b815260206004820152602a60248201527f4552433732313a2062616c616e636520717565727920666f7220746865207a65604482015269726f206164647265737360b01b60648201526084016108b4565b506001600160a01b031660009081526003602052604090205490565b6006546001600160a01b031633146116bb5760405162461bcd60e51b81526004016108b490612b46565b6116c56000611ffc565b565b6006546001600160a01b031633146116f15760405162461bcd60e51b81526004016108b490612b46565b600b80546001600160a01b0319166001600160a01b0392909216919091179055565b6006546001600160a01b0316331461173d5760405162461bcd60e51b81526004016108b490612b46565b61ffff91909116600090815260126020526040902080546001600160a01b0319166001600160a01b03909216919091179055565b6006546001600160a01b0316331461179b5760405162461bcd60e51b81526004016108b490612b46565b60006117a7838361204e565b6010805461ffff191661ffff929092169182179055905060005b81811015610e4a576117d1611f92565b806117db81612cf3565b9150506117c1565b6060600180546108ee90612b7b565b610c4333838361214e565b6118073383611ae3565b6118235760405162461bcd60e51b81526004016108b490612c3f565b610e4a8484848461221d565b6000818152600260205260409020546060906001600160a01b03166118ae5760405162461bcd60e51b815260206004820152602f60248201527f4552433732314d657461646174613a2055524920717565727920666f72206e6f60448201526e3732bc34b9ba32b73a103a37b5b2b760891b60648201526084016108b4565b60006118b8612250565b905060008151116118d85760405180602001604052806000815250611903565b806118e28461225f565b6040516020016118f3929190612df7565b6040516020818303038152906040525b9392505050565b60095461ffff166000908152600a60205260408120546108849083612d0e565b6006546001600160a01b031633146119545760405162461bcd60e51b81526004016108b490612b46565b610c438282611a6d565b6006546001600160a01b031633146119885760405162461bcd60e51b81526004016108b490612b46565b6001600160a01b0381166119ed5760405162461bcd60e51b815260206004820152602660248201527f4f776e61626c653a206e6577206f776e657220697320746865207a65726f206160448201526564647265737360d01b60648201526084016108b4565b6119f681611ffc565b50565b3b151590565b600081815260046020526040902080546001600160a01b0319166001600160a01b0384169081179091558190611a3482610ece565b6001600160a01b03167f8c5be1e5ebec7d5bd14f71427d1e84f3dd0314c0f7b2291e5b200ac8c7c3b92560405160405180910390a45050565b815b8161ffff168161ffff1611610b1757600f805460018101825560008290527f8d1108e10bcb7c27dddfc02ed9d693a074039d026cf4ea4240b40f7d581ac80260108204018054919092166002026101000a61ffff818102199092169184160217905580611adb81612e1d565b915050611a6f565b6000818152600260205260408120546001600160a01b0316611b5c5760405162461bcd60e51b815260206004820152602c60248201527f4552433732313a206f70657261746f7220717565727920666f72206e6f6e657860448201526b34b9ba32b73a103a37b5b2b760a11b60648201526084016108b4565b6000611b6783610ece565b9050806001600160a01b0316846001600160a01b03161480611ba25750836001600160a01b0316611b9784610971565b6001600160a01b0316145b80611bd257506001600160a01b0380821660009081526005602090815260408083209388168352929052205460ff165b949350505050565b826001600160a01b0316611bed82610ece565b6001600160a01b031614611c555760405162461bcd60e51b815260206004820152602960248201527f4552433732313a207472616e73666572206f6620746f6b656e2074686174206960448201526839903737ba1037bbb760b91b60648201526084016108b4565b6001600160a01b038216611cb75760405162461bcd60e51b8152602060048201526024808201527f4552433732313a207472616e7366657220746f20746865207a65726f206164646044820152637265737360e01b60648201526084016108b4565b611cc26000826119ff565b6001600160a01b0383166000908152600360205260408120805460019290611ceb908490612d57565b90915550506001600160a01b0382166000908152600360205260408120805460019290611d19908490612c90565b909155505060008181526002602052604080822080546001600160a01b0319166001600160a01b0386811691821790925591518493918716917fddf252ad1be2c89b69c2b068fc378daa952ba7f163c4a11628f55a4df523b3ef91a4505050565b600f546000908190611d8c908061204e565b61ffff1690506000600f8281548110611da757611da7612d87565b90600052602060002090601091828204019190066002029054906101000a900461ffff169050600f6001600f80549050611de19190612d57565b81548110611df157611df1612d87565b90600052602060002090601091828204019190066002029054906101000a900461ffff16600f8381548110611e2857611e28612d87565b90600052602060002090601091828204019190066002026101000a81548161ffff021916908361ffff160217905550600f805480611e6857611e68612e3f565b600082815260209020601060001990920191820401805461ffff6002600f8516026101000a0219169055905592915050565b610c4382826040518060200160405280600081525061235d565b60095460009061ffff1660011415611ecb57503390565b600954600a90611eea906601000000000000900461ffff16606461204e565b61ffff1610611ef857503390565b600b5460408051630995755760e31b815290516000926001600160a01b031691634cabaab891600480830192602092919082900301818787803b158015611f3e57600080fd5b505af1158015611f52573d6000803e3d6000fd5b505050506040513d601f19601f82011682018060405250810190611f769190612e55565b90506001600160a01b038116611f8d573391505090565b919050565b6010805460019190600090611fac90849061ffff16612c19565b92506101000a81548161ffff021916908361ffff160217905550600160116000828254611fd99190612c90565b9091555050601054600661ffff90911611156116c5576010805461ffff19169055565b600680546001600160a01b038381166001600160a01b0319831681179093556040519116919082907f8be0079c531659141344cd1fd0a4f28419497f9722a3daafe3b4186f6b6457e090600090a35050565b600080805b60078161ffff16101561209e5760105461ffff1660009081526012602052604090205461208a906001600160a01b03163183612c90565b91508061209681612e1d565b915050612053565b506000846120ad600143612d57565b60085460115460105460408051602081019690965293409385019390935241606090811b6bffffffffffffffffffffffff19908116828701524460748701523390911b16609485015260a884019190915260c8830185905260e883015260f01b6001600160f01b03191661010882015261010a0160408051601f19818403018152919052805160209091012090506121458482612e72565b95945050505050565b816001600160a01b0316836001600160a01b031614156121b05760405162461bcd60e51b815260206004820152601960248201527f4552433732313a20617070726f766520746f2063616c6c65720000000000000060448201526064016108b4565b6001600160a01b03838116600081815260056020908152604080832094871680845294825291829020805460ff191686151590811790915591519182527f17307eab39ab6107e8899845ad3d59bd9653f200f220920489ca2b5937696c31910160405180910390a3505050565b612228848484611bda565b61223484848484612390565b610e4a5760405162461bcd60e51b81526004016108b490612e86565b6060600d80546108ee90612b7b565b6060816122835750506040805180820190915260018152600360fc1b602082015290565b8160005b81156122ad578061229781612cf3565b91506122a69050600a83612d43565b9150612287565b60008167ffffffffffffffff8111156122c8576122c8612889565b6040519080825280601f01601f1916602001820160405280156122f2576020820181803683370190505b5090505b8415611bd257612307600183612d57565b9150612314600a86612e72565b61231f906030612c90565b60f81b81838151811061233457612334612d87565b60200101906001600160f81b031916908160001a905350612356600a86612d43565b94506122f6565b612367838361249d565b6123746000848484612390565b610b175760405162461bcd60e51b81526004016108b490612e86565b60006001600160a01b0384163b1561249257604051630a85bd0160e11b81526001600160a01b0385169063150b7a02906123d4903390899088908890600401612ed8565b602060405180830381600087803b1580156123ee57600080fd5b505af192505050801561241e575060408051601f3d908101601f1916820190925261241b91810190612f15565b60015b612478573d80801561244c576040519150601f19603f3d011682016040523d82523d6000602084013e612451565b606091505b5080516124705760405162461bcd60e51b81526004016108b490612e86565b805181602001fd5b6001600160e01b031916630a85bd0160e11b149050611bd2565b506001949350505050565b6001600160a01b0382166124f35760405162461bcd60e51b815260206004820181905260248201527f4552433732313a206d696e7420746f20746865207a65726f206164647265737360448201526064016108b4565b6000818152600260205260409020546001600160a01b0316156125585760405162461bcd60e51b815260206004820152601c60248201527f4552433732313a20746f6b656e20616c7265616479206d696e7465640000000060448201526064016108b4565b6001600160a01b0382166000908152600360205260408120805460019290612581908490612c90565b909155505060008181526002602052604080822080546001600160a01b0319166001600160a01b03861690811790915590518392907fddf252ad1be2c89b69c2b068fc378daa952ba7f163c4a11628f55a4df523b3ef908290a45050565b8280546125eb90612b7b565b90600052602060002090601f01602090048101928261260d5760008555612653565b82601f1061262657805160ff1916838001178555612653565b82800160010185558215612653579182015b82811115612653578251825591602001919060010190612638565b5061265f929150612663565b5090565b5b8082111561265f5760008155600101612664565b6001600160e01b0319811681146119f657600080fd5b6000602082840312156126a057600080fd5b813561190381612678565b6001600160a01b03811681146119f657600080fd5b6000602082840312156126d257600080fd5b8135611903816126ab565b60005b838110156126f85781810151838201526020016126e0565b83811115610e4a5750506000910152565b600081518084526127218160208601602086016126dd565b601f01601f19169290920160200192915050565b6020815260006119036020830184612709565b60006020828403121561275a57600080fd5b5035919050565b6000806040838503121561277457600080fd5b823561277f816126ab565b946020939093013593505050565b80358015158114611f8d57600080fd5b6000602082840312156127af57600080fd5b6119038261278d565b803561ffff81168114611f8d57600080fd5b600080604083850312156127dd57600080fd5b6127e6836127b8565b91506127f46020840161278d565b90509250929050565b60008060006060848603121561281257600080fd5b833561281d816126ab565b9250602084013561282d816126ab565b929592945050506040919091013590565b6000806040838503121561285157600080fd5b823591506020830135612863816126ab565b809150509250929050565b60006020828403121561288057600080fd5b611903826127b8565b634e487b7160e01b600052604160045260246000fd5b600067ffffffffffffffff808411156128ba576128ba612889565b604051601f8501601f19908116603f011681019082821181831017156128e2576128e2612889565b816040528093508581528686860111156128fb57600080fd5b858560208301376000602087830101525050509392505050565b60006020828403121561292757600080fd5b813567ffffffffffffffff81111561293e57600080fd5b8201601f8101841361294f57600080fd5b611bd28482356020840161289f565b6000806040838503121561297157600080fd5b61277f836127b8565b6000806040838503121561298d57600080fd5b823591506127f46020840161278d565b600080602083850312156129b057600080fd5b823567ffffffffffffffff808211156129c857600080fd5b818501915085601f8301126129dc57600080fd5b8135818111156129eb57600080fd5b8660208260051b8501011115612a0057600080fd5b60209290920196919550909350505050565b60008060408385031215612a2557600080fd5b612a2e836127b8565b91506020830135612863816126ab565b60008060408385031215612a5157600080fd5b50508035926020909101359150565b60008060408385031215612a7357600080fd5b82356127e6816126ab565b60008060008060808587031215612a9457600080fd5b8435612a9f816126ab565b93506020850135612aaf816126ab565b925060408501359150606085013567ffffffffffffffff811115612ad257600080fd5b8501601f81018713612ae357600080fd5b612af28782356020840161289f565b91505092959194509250565b60008060408385031215612b1157600080fd5b8235612a2e816126ab565b60008060408385031215612b2f57600080fd5b612b38836127b8565b91506127f4602084016127b8565b6020808252818101527f4f776e61626c653a2063616c6c6572206973206e6f7420746865206f776e6572604082015260600190565b600181811c90821680612b8f57607f821691505b60208210811415612bb057634e487b7160e01b600052602260045260246000fd5b50919050565b634e487b7160e01b600052601160045260246000fd5b600061ffff83811690831681811015612be757612be7612bb6565b039392505050565b600061ffff80831681851681830481118215151615612c1057612c10612bb6565b02949350505050565b600061ffff808316818516808303821115612c3657612c36612bb6565b01949350505050565b60208082526031908201527f4552433732313a207472616e736665722063616c6c6572206973206e6f74206f6040820152701ddb995c881b9bdc88185c1c1c9bdd9959607a1b606082015260800190565b60008219821115612ca357612ca3612bb6565b500190565b6020808252602b908201527f416c6c20746f6b656e7320666f72207468697320536561736f6e20617265206160408201526a1b1c9958591e481cdbdb1960aa1b606082015260800190565b6000600019821415612d0757612d07612bb6565b5060010190565b6000816000190483118215151615612d2857612d28612bb6565b500290565b634e487b7160e01b600052601260045260246000fd5b600082612d5257612d52612d2d565b500490565b600082821015612d6957612d69612bb6565b500390565b600060208284031215612d8057600080fd5b5051919050565b634e487b7160e01b600052603260045260246000fd5b6001600160a01b038316815260406020808301829052835191830182905260009184820191906060850190845b81811015612dea57845161ffff1683529383019391830191600101612dca565b5090979650505050505050565b60008351612e098184602088016126dd565b835190830190612c368183602088016126dd565b600061ffff80831681811415612e3557612e35612bb6565b6001019392505050565b634e487b7160e01b600052603160045260246000fd5b600060208284031215612e6757600080fd5b8151611903816126ab565b600082612e8157612e81612d2d565b500690565b60208082526032908201527f4552433732313a207472616e7366657220746f206e6f6e20455243373231526560408201527131b2b4bb32b91034b6b83632b6b2b73a32b960711b606082015260800190565b6001600160a01b0385811682528416602082015260408101839052608060608201819052600090612f0b90830184612709565b9695505050505050565b600060208284031215612f2757600080fd5b81516119038161267856fea2646970667358221220f024227cd64c9353173f8403cb50fecf1fe5539b363bcec426bfd5d09aa53af364736f6c634300080900334552433732313a207472616e7366657220746f206e6f6e20455243373231526568747470733a2f2f676f6c642d68756e742e6865726f6b756170702e636f6d2f746f6b656e2f",
  "linkReferences": {},
  "deployedLinkReferences": {}
}