{
  "_format": "hh-sol-artifact-1",
  "contractName": "GoldStake",
  "sourceName": "contracts/GoldStake.sol",
  "abi": [
    {
      "inputs": [],
      "stateMutability": "nonpayable",
      "type": "constructor"
    },
    {
      "anonymous": false,
      "inputs": [
        {
          "indexed": true,
          "internalType": "address",
          "name": "previousOwner",
          "type": "address"
        },
        {
          "indexed": true,
          "internalType": "address",
          "name": "newOwner",
          "type": "address"
        }
      ],
      "name": "OwnershipTransferred",
      "type": "event"
    },
    {
      "anonymous": false,
      "inputs": [
        {
          "indexed": false,
          "internalType": "address",
          "name": "account",
          "type": "address"
        }
      ],
      "name": "Paused",
      "type": "event"
    },
    {
      "anonymous": false,
      "inputs": [
        {
          "indexed": false,
          "internalType": "address",
          "name": "owner",
          "type": "address"
        },
        {
          "indexed": false,
          "internalType": "uint16",
          "name": "shipId",
          "type": "uint16"
        },
        {
          "indexed": false,
          "internalType": "uint16[]",
          "name": "tokenIds",
          "type": "uint16[]"
        },
        {
          "indexed": false,
          "internalType": "uint256",
          "name": "timestamp",
          "type": "uint256"
        }
      ],
      "name": "ShipArrived",
      "type": "event"
    },
    {
      "anonymous": false,
      "inputs": [
        {
          "indexed": false,
          "internalType": "address",
          "name": "owner",
          "type": "address"
        },
        {
          "indexed": false,
          "internalType": "uint16",
          "name": "shipId",
          "type": "uint16"
        },
        {
          "indexed": false,
          "internalType": "uint16[]",
          "name": "tokenIds",
          "type": "uint16[]"
        },
        {
          "indexed": false,
          "internalType": "uint16",
          "name": "rum",
          "type": "uint16"
        },
        {
          "indexed": false,
          "internalType": "uint16",
          "name": "speed",
          "type": "uint16"
        },
        {
          "indexed": false,
          "internalType": "uint256",
          "name": "timestamp",
          "type": "uint256"
        }
      ],
      "name": "TokenStaked",
      "type": "event"
    },
    {
      "anonymous": false,
      "inputs": [
        {
          "indexed": false,
          "internalType": "address",
          "name": "account",
          "type": "address"
        }
      ],
      "name": "Unpaused",
      "type": "event"
    },
    {
      "inputs": [],
      "name": "RUM_TICKET_ID",
      "outputs": [
        {
          "internalType": "uint256",
          "name": "",
          "type": "uint256"
        }
      ],
      "stateMutability": "view",
      "type": "function"
    },
    {
      "inputs": [
        {
          "internalType": "address",
          "name": "_address",
          "type": "address"
        }
      ],
      "name": "addManager",
      "outputs": [],
      "stateMutability": "nonpayable",
      "type": "function"
    },
    {
      "inputs": [
        {
          "internalType": "address",
          "name": "",
          "type": "address"
        }
      ],
      "name": "approvedManagers",
      "outputs": [
        {
          "internalType": "bool",
          "name": "",
          "type": "bool"
        }
      ],
      "stateMutability": "view",
      "type": "function"
    },
    {
      "inputs": [
        {
          "internalType": "uint16",
          "name": "_distance",
          "type": "uint16"
        }
      ],
      "name": "changeDistance",
      "outputs": [],
      "stateMutability": "nonpayable",
      "type": "function"
    },
    {
      "inputs": [
        {
          "internalType": "uint16",
          "name": "_key",
          "type": "uint16"
        },
        {
          "internalType": "uint16",
          "name": "_newValue",
          "type": "uint16"
        }
      ],
      "name": "changeRumSpeedMapping",
      "outputs": [],
      "stateMutability": "nonpayable",
      "type": "function"
    },
    {
      "inputs": [
        {
          "internalType": "uint16",
          "name": "_key",
          "type": "uint16"
        },
        {
          "internalType": "uint16",
          "name": "_newValue",
          "type": "uint16"
        }
      ],
      "name": "changeSpeedMapping",
      "outputs": [],
      "stateMutability": "nonpayable",
      "type": "function"
    },
    {
      "inputs": [],
      "name": "distance",
      "outputs": [
        {
          "internalType": "uint256",
          "name": "",
          "type": "uint256"
        }
      ],
      "stateMutability": "view",
      "type": "function"
    },
    {
      "inputs": [
        {
          "internalType": "address",
          "name": "_address",
          "type": "address"
        }
      ],
      "name": "getStake",
      "outputs": [
        {
          "components": [
            {
              "internalType": "address",
              "name": "owner",
              "type": "address"
            },
            {
              "internalType": "uint80",
              "name": "startTimestamp",
              "type": "uint80"
            },
            {
              "internalType": "uint16[]",
              "name": "tokenIds",
              "type": "uint16[]"
            },
            {
              "internalType": "uint16",
              "name": "speed",
              "type": "uint16"
            }
          ],
          "internalType": "struct GoldStake.OceanStake[]",
          "name": "",
          "type": "tuple[]"
        }
      ],
      "stateMutability": "view",
      "type": "function"
    },
    {
      "inputs": [],
      "name": "goldHunter",
      "outputs": [
        {
          "internalType": "contract IToken",
          "name": "",
          "type": "address"
        }
      ],
      "stateMutability": "view",
      "type": "function"
    },
    {
      "inputs": [
        {
          "internalType": "uint16",
          "name": "_index",
          "type": "uint16"
        }
      ],
      "name": "isWaterproof",
      "outputs": [
        {
          "internalType": "bool",
          "name": "",
          "type": "bool"
        }
      ],
      "stateMutability": "view",
      "type": "function"
    },
    {
      "inputs": [
        {
          "internalType": "uint16[]",
          "name": "_tokensIds",
          "type": "uint16[]"
        }
      ],
      "name": "isWaterproofMany",
      "outputs": [
        {
          "internalType": "bool[]",
          "name": "",
          "type": "bool[]"
        }
      ],
      "stateMutability": "view",
      "type": "function"
    },
    {
      "inputs": [],
      "name": "newLand",
      "outputs": [
        {
          "internalType": "contract INewLand",
          "name": "",
          "type": "address"
        }
      ],
      "stateMutability": "view",
      "type": "function"
    },
    {
      "inputs": [
        {
          "internalType": "address",
          "name": "",
          "type": "address"
        },
        {
          "internalType": "uint256",
          "name": "",
          "type": "uint256"
        }
      ],
      "name": "oceanStake",
      "outputs": [
        {
          "internalType": "address",
          "name": "owner",
          "type": "address"
        },
        {
          "internalType": "uint80",
          "name": "startTimestamp",
          "type": "uint80"
        },
        {
          "internalType": "uint16",
          "name": "speed",
          "type": "uint16"
        }
      ],
      "stateMutability": "view",
      "type": "function"
    },
    {
      "inputs": [
        {
          "internalType": "address",
          "name": "",
          "type": "address"
        },
        {
          "internalType": "address",
          "name": "from",
          "type": "address"
        },
        {
          "internalType": "uint256",
          "name": "",
          "type": "uint256"
        },
        {
          "internalType": "bytes",
          "name": "",
          "type": "bytes"
        }
      ],
      "name": "onERC721Received",
      "outputs": [
        {
          "internalType": "bytes4",
          "name": "",
          "type": "bytes4"
        }
      ],
      "stateMutability": "pure",
      "type": "function"
    },
    {
      "inputs": [],
      "name": "owner",
      "outputs": [
        {
          "internalType": "address",
          "name": "",
          "type": "address"
        }
      ],
      "stateMutability": "view",
      "type": "function"
    },
    {
      "inputs": [],
      "name": "pause",
      "outputs": [],
      "stateMutability": "nonpayable",
      "type": "function"
    },
    {
      "inputs": [],
      "name": "paused",
      "outputs": [
        {
          "internalType": "bool",
          "name": "",
          "type": "bool"
        }
      ],
      "stateMutability": "view",
      "type": "function"
    },
    {
      "inputs": [],
      "name": "raftsArrivedCounter",
      "outputs": [
        {
          "internalType": "uint16",
          "name": "",
          "type": "uint16"
        }
      ],
      "stateMutability": "view",
      "type": "function"
    },
    {
      "inputs": [],
      "name": "raftsInOceanCounter",
      "outputs": [
        {
          "internalType": "uint16",
          "name": "",
          "type": "uint16"
        }
      ],
      "stateMutability": "view",
      "type": "function"
    },
    {
      "inputs": [
        {
          "internalType": "address",
          "name": "_address",
          "type": "address"
        }
      ],
      "name": "removeManager",
      "outputs": [],
      "stateMutability": "nonpayable",
      "type": "function"
    },
    {
      "inputs": [],
      "name": "renounceOwnership",
      "outputs": [],
      "stateMutability": "nonpayable",
      "type": "function"
    },
    {
      "inputs": [],
      "name": "rum",
      "outputs": [
        {
          "internalType": "contract IRum",
          "name": "",
          "type": "address"
        }
      ],
      "stateMutability": "view",
      "type": "function"
    },
    {
      "inputs": [
        {
          "internalType": "uint16",
          "name": "",
          "type": "uint16"
        }
      ],
      "name": "rumSpeedMapping",
      "outputs": [
        {
          "internalType": "uint16",
          "name": "",
          "type": "uint16"
        }
      ],
      "stateMutability": "view",
      "type": "function"
    },
    {
      "inputs": [
        {
          "internalType": "address",
          "name": "_address",
          "type": "address"
        }
      ],
      "name": "setGoldHunter",
      "outputs": [],
      "stateMutability": "nonpayable",
      "type": "function"
    },
    {
      "inputs": [
        {
          "internalType": "address",
          "name": "_address",
          "type": "address"
        }
      ],
      "name": "setNewLand",
      "outputs": [],
      "stateMutability": "nonpayable",
      "type": "function"
    },
    {
      "inputs": [
        {
          "internalType": "address",
          "name": "_address",
          "type": "address"
        }
      ],
      "name": "setRum",
      "outputs": [],
      "stateMutability": "nonpayable",
      "type": "function"
    },
    {
      "inputs": [
        {
          "internalType": "address",
          "name": "_address",
          "type": "address"
        }
      ],
      "name": "setShips",
      "outputs": [],
      "stateMutability": "nonpayable",
      "type": "function"
    },
    {
      "inputs": [],
      "name": "shipToken",
      "outputs": [
        {
          "internalType": "contract IToken",
          "name": "",
          "type": "address"
        }
      ],
      "stateMutability": "view",
      "type": "function"
    },
    {
      "inputs": [],
      "name": "shipsArrivedCounter",
      "outputs": [
        {
          "internalType": "uint16",
          "name": "",
          "type": "uint16"
        }
      ],
      "stateMutability": "view",
      "type": "function"
    },
    {
      "inputs": [],
      "name": "shipsInOceanCounter",
      "outputs": [
        {
          "internalType": "uint16",
          "name": "",
          "type": "uint16"
        }
      ],
      "stateMutability": "view",
      "type": "function"
    },
    {
      "inputs": [
        {
          "internalType": "uint16",
          "name": "",
          "type": "uint16"
        }
      ],
      "name": "speedMapping",
      "outputs": [
        {
          "internalType": "uint16",
          "name": "",
          "type": "uint16"
        }
      ],
      "stateMutability": "view",
      "type": "function"
    },
    {
      "inputs": [
        {
          "internalType": "uint256",
          "name": "",
          "type": "uint256"
        }
      ],
      "name": "stakeIndices",
      "outputs": [
        {
          "internalType": "uint256",
          "name": "",
          "type": "uint256"
        }
      ],
      "stateMutability": "view",
      "type": "function"
    },
    {
      "inputs": [
        {
          "internalType": "address",
          "name": "_account",
          "type": "address"
        },
        {
          "internalType": "uint16",
          "name": "_shipId",
          "type": "uint16"
        },
        {
          "internalType": "uint16[]",
          "name": "_tokenIds",
          "type": "uint16[]"
        },
        {
          "internalType": "uint16",
          "name": "_rumAmount",
          "type": "uint16"
        }
      ],
      "name": "stakeTokens",
      "outputs": [],
      "stateMutability": "nonpayable",
      "type": "function"
    },
    {
      "inputs": [],
      "name": "tokensArrivedCounter",
      "outputs": [
        {
          "internalType": "uint16",
          "name": "",
          "type": "uint16"
        }
      ],
      "stateMutability": "view",
      "type": "function"
    },
    {
      "inputs": [
        {
          "internalType": "address",
          "name": "newOwner",
          "type": "address"
        }
      ],
      "name": "transferOwnership",
      "outputs": [],
      "stateMutability": "nonpayable",
      "type": "function"
    },
    {
      "inputs": [],
      "name": "unpause",
      "outputs": [],
      "stateMutability": "nonpayable",
      "type": "function"
    },
    {
      "inputs": [
        {
          "internalType": "address",
          "name": "_owner",
          "type": "address"
        },
        {
          "internalType": "uint16",
          "name": "_index",
          "type": "uint16"
        }
      ],
      "name": "unstakeTokens",
      "outputs": [],
      "stateMutability": "nonpayable",
      "type": "function"
    },
    {
      "inputs": [
        {
          "internalType": "address",
          "name": "_owner",
          "type": "address"
        },
        {
          "internalType": "uint16",
          "name": "_index",
          "type": "uint16"
        }
      ],
      "name": "unstakeTokensIntoLand",
      "outputs": [],
      "stateMutability": "nonpayable",
      "type": "function"
    },
    {
      "inputs": [
        {
          "internalType": "uint16",
          "name": "",
          "type": "uint16"
        }
      ],
      "name": "waterproof",
      "outputs": [
        {
          "internalType": "bool",
          "name": "",
          "type": "bool"
        }
      ],
      "stateMutability": "view",
      "type": "function"
    }
  ],
  "bytecode": "0x608060405262067b606009553480156200001857600080fd5b50620000243362000276565b6000805460ff60a01b191690556200003b620002c6565b7fdf7de25b7f1fd6d0b5205f0e18f1f35bd7b8d84cce336588d184533ce43a6f76805461ffff19908116600a9081179092557f72c6bfb7988af3a1efa6568f02a999bc52252641c659d85961ca3d372b57d5cf8054821660081790557fa50eece07c7db1631545c0069bd8f5f54d5935e215d59097edf258a44ba916348054821660071790557f64c15cc42be7899b001f818cf4433057002112c418d1d3a67cd5cb453051d33e8054821660061790557f12d0c11577e2f0950f57c455c117796550b79f444811db8ba2f69c57b646c7848054821660041790557febae6141bae5521e99e0a8d610356b0f501fea54980b59c84841db43ba7204f48054821660031790557f0387e9d1203691d8e3362a7e4c6723de358a4010d7f31ecbec3fbfc61d1c75fc8054821660021790556020919091527f13da86008ba1c6922daee3e07db95305ef49ebced9f5467a0b8613fcc6b343e380548216601e9081179091557fbbc70db1b6c7afd11e79c0fb0051300458f1a3acb8ee9789d9b6b26c61ad9bc780548316821790557fbff4442b8ed600beeb8e26b1279a0f0d14c6edfaec26d968ee13c86f7d4c2ba880548316602d1790557fa856840544dc26124927add067d799967eac11be13e14d82cc281ea46fa3975980548316600f1790557fe1eb2b2161a492c07c5a334e48012567cba93ec021043f53c1955516a3c5a84180548316909117905560056000527ff35035bc2b01d44bd35a1dcdc552315cffb73da35cfd60570b7b777f98036f9f8054909116905562000378565b600080546001600160a01b038381166001600160a01b0319831681178455604051919092169283917f8be0079c531659141344cd1fd0a4f28419497f9722a3daafe3b4186f6b6457e09190a35050565b620002da600054600160a01b900460ff1690565b156200031f5760405162461bcd60e51b815260206004820152601060248201526f14185d5cd8589b194e881c185d5cd95960821b604482015260640160405180910390fd5b6000805460ff60a01b1916600160a01b1790557f62e78cea01bee320cd4e420270b5ea74000d11b0c9f74754ebdbfc544b05a2586200035b3390565b6040516001600160a01b03909116815260200160405180910390a1565b612ebc80620003886000396000f3fe608060405234801561001057600080fd5b506004361061023d5760003560e01c8063715018a61161013b578063a14f6f8f116100b8578063e7ff57d51161007c578063e7ff57d5146105ac578063ea283b59146105bf578063ee4b4884146105d2578063f2fde38b146105e5578063fe5f91c8146105f857600080fd5b8063a14f6f8f14610518578063ac18de431461052b578063de5b86441461053e578063e03b966214610552578063e39dcfeb1461059657600080fd5b80638456cb59116100ff5780638456cb59146104a15780638cf0c191146104a95780638da5cb5b146104bc5780638fc77973146104cd5780639339c52d146104f457600080fd5b8063715018a61461043457806373e36af71461043c5780637828c62f1461044f5780637a7664601461045d578063836761e41461047d57600080fd5b80632d06177a116101c95780635db456b41161018d5780635db456b4146103b85780635f221bfe146103cb578063606c0a81146103de57806363c0f133146103f1578063650528b01461041457600080fd5b80632d06177a1461036f5780633f4ba83a146103825780634851375c1461038a578063552a8db3146103935780635c975abb146103a657600080fd5b80631b6ef324116102105780631b6ef324146102c65780631fdaba11146102f957806320636aab14610324578063269824311461033957806328e24b9f1461035957600080fd5b80630652541b146102425780630c7a2a5c146102575780631295b9c014610287578063150b7a021461029a575b600080fd5b61025561025036600461275b565b61060b565b005b600c5461026f906601000000000000900461ffff1681565b60405161ffff90911681526020015b60405180910390f35b6102556102953660046127a3565b610662565b6102ad6102a83660046127c7565b6106ae565b6040516001600160e01b0319909116815260200161027e565b6102e96102d4366004612866565b60056020526000908152604090205460ff1681565b604051901515815260200161027e565b60015461030c906001600160a01b031681565b6040516001600160a01b03909116815260200161027e565b600c5461026f90600160401b900461ffff1681565b61034c6103473660046128cd565b61072d565b60405161027e919061290f565b610361600081565b60405190815260200161027e565b61025561037d3660046127a3565b610805565b610255610853565b61036160095481565b6102556103a13660046127a3565b610887565b600054600160a01b900460ff166102e9565b60035461030c906001600160a01b031681565b60025461030c906001600160a01b031681565b6102556103ec366004612955565b6108dc565b6102e96103ff3660046127a3565b60086020526000908152604090205460ff1681565b6103616104223660046129cd565b60066020526000908152604090205481565b610255611353565b61025561044a3660046127a3565b611387565b600c5461026f9061ffff1681565b61047061046b3660046127a3565b6113dc565b60405161027e9190612a25565b61026f61048b366004612866565b600a6020526000908152604090205461ffff1681565b610255611502565b60045461030c906001600160a01b031681565b6000546001600160a01b031661030c565b6102e96104db366004612866565b61ffff1660009081526005602052604090205460ff1690565b61026f610502366004612866565b600b6020526000908152604090205461ffff1681565b61025561052636600461275b565b611534565b6102556105393660046127a3565b611582565b600c5461026f9062010000900461ffff1681565b610565610560366004612ac9565b6115cd565b604080516001600160a01b0390941684526001600160501b03909216602084015261ffff169082015260600161027e565b600c5461026f90640100000000900461ffff1681565b6102556105ba366004612866565b611627565b6102556105cd3660046127a3565b61165a565b6102556105e0366004612af5565b6116af565b6102556105f33660046127a3565b611e4b565b610255610606366004612af5565b611ee6565b6000546001600160a01b0316331461063e5760405162461bcd60e51b815260040161063590612b13565b60405180910390fd5b61ffff9182166000908152600b60205260409020805461ffff191691909216179055565b6000546001600160a01b0316331461068c5760405162461bcd60e51b815260040161063590612b13565b600480546001600160a01b0319166001600160a01b0392909216919091179055565b60006001600160a01b0385161561071b5760405162461bcd60e51b815260206004820152602b60248201527f43616e6e6f742073656e6420746f6b656e7320746f207468697320636f6e746160448201526a6374206469726563746c7960a81b6064820152608401610635565b50630a85bd0160e11b95945050505050565b606060008267ffffffffffffffff81111561074a5761074a612b48565b604051908082528060200260200182016040528015610773578160200160208202803683370190505b50905060005b838110156107fd576005600086868481811061079757610797612b5e565b90506020020160208101906107ac9190612866565b61ffff168152602081019190915260400160002054825160ff909116908390839081106107db576107db612b5e565b91151560209283029190910190910152806107f581612b8a565b915050610779565b509392505050565b6000546001600160a01b0316331461082f5760405162461bcd60e51b815260040161063590612b13565b6001600160a01b03166000908152600860205260409020805460ff19166001179055565b6000546001600160a01b0316331461087d5760405162461bcd60e51b815260040161063590612b13565b6108856124c5565b565b6000546001600160a01b031633146108b15760405162461bcd60e51b815260040161063590612b13565b6108ba81610805565b600180546001600160a01b0319166001600160a01b0392909216919091179055565b600054600160a01b900460ff16156109065760405162461bcd60e51b815260040161063590612ba5565b6001600160a01b038516331461096e5760405162461bcd60e51b815260206004820152602760248201527f596f7520646f206e6f7420686176652061207065726d697373696f6e20746f20604482015266191bc81d1a185d60ca1b6064820152608401610635565b61ffff841615610a1d576002546040516331a9108f60e11b815261ffff8616600482015233916001600160a01b031690636352211e9060240160206040518083038186803b1580156109bf57600080fd5b505afa1580156109d3573d6000803e3d6000fd5b505050506040513d601f19601f820116820180604052508101906109f79190612bcf565b6001600160a01b031614610a1d5760405162461bcd60e51b815260040161063590612bec565b60008052600a6020527f13da86008ba1c6922daee3e07db95305ef49ebced9f5467a0b8613fcc6b343e35461ffff90811690851615610c6f57600254604051632c12395b60e01b815261ffff871660048201526001600160a01b0390911690632c12395b9060240160206040518083038186803b158015610a9d57600080fd5b505afa158015610ab1573d6000803e3d6000fd5b505050506040513d601f19601f82011682018060405250810190610ad59190612c2f565b15610b6157506002600052600a6020527fbff4442b8ed600beeb8e26b1279a0f0d14c6edfaec26d968ee13c86f7d4c2ba85461ffff166007831115610b5c5760405162461bcd60e51b815260206004820152601d60248201527f43616e6e6f74207374616b65206d6f7265207468616e2037204e4654730000006044820152606401610635565b610be3565b506001600052600a6020527fbbc70db1b6c7afd11e79c0fb0051300458f1a3acb8ee9789d9b6b26c61ad9bc75461ffff166005831115610be35760405162461bcd60e51b815260206004820152601d60248201527f43616e6e6f74207374616b65206d6f7265207468616e2035204e4654730000006044820152606401610635565b6002546040516323b872dd60e01b815233600482015230602482015261ffff871660448201526001600160a01b03909116906323b872dd90606401600060405180830381600087803b158015610c3857600080fd5b505af1158015610c4c573d6000803e3d6000fd5b50505061ffff86166000908152600560205260409020805460ff19166001179055505b60005b8261ffff168161ffff161015610df55760048054604051627eeac760e11b81526001600160a01b038a811693820193909352600060248201819052929091169062fdd58e90604401602060405180830381600087803b158015610cd457600080fd5b505af1158015610ce8573d6000803e3d6000fd5b505050506040513d601f19601f82011682018060405250810190610d0c9190612c51565b11610d595760405162461bcd60e51b815260206004820152601b60248201527f4e6f20746f6b656e7320617661696c61626c6520746f206275726e00000000006044820152606401610635565b60048054604051632770a7eb60e21b81526001600160a01b038a81169382019390935260016024820152911690639dc29fac90604401600060405180830381600087803b158015610da957600080fd5b505af1158015610dbd573d6000803e3d6000fd5b50505061ffff8083166000908152600b6020526040902054610de192501683612c6a565b915080610ded81612c90565b915050610c72565b506000610e03846001612cb2565b67ffffffffffffffff811115610e1b57610e1b612b48565b604051908082528060200260200182016040528015610e44578160200160208202803683370190505b5090508581600081518110610e5b57610e5b612b5e565b602002602001019061ffff16908161ffff168152505060005b848110156111d15760015433906001600160a01b0316636352211e888885818110610ea157610ea1612b5e565b9050602002016020810190610eb69190612866565b6040516001600160e01b031960e084901b16815261ffff909116600482015260240160206040518083038186803b158015610ef057600080fd5b505afa158015610f04573d6000803e3d6000fd5b505050506040513d601f19601f82011682018060405250810190610f289190612bcf565b6001600160a01b031614610f4e5760405162461bcd60e51b815260040161063590612bec565b6001546001600160a01b03166323b872dd3330898986818110610f7357610f73612b5e565b9050602002016020810190610f889190612866565b6040516001600160e01b031960e086901b1681526001600160a01b03938416600482015292909116602483015261ffff166044820152606401600060405180830381600087803b158015610fdb57600080fd5b505af1158015610fef573d6000803e3d6000fd5b5050505060016005600088888581811061100b5761100b612b5e565b90506020020160208101906110209190612866565b61ffff1681526020810191909152604001600020805460ff191691151591909117905585858281811061105557611055612b5e565b905060200201602081019061106a9190612866565b82611076836001612cb2565b8151811061108657611086612b5e565b61ffff92831660209182029290920101528716156111bf576001546001600160a01b0316632c12395b8787848181106110c1576110c1612b5e565b90506020020160208101906110d69190612866565b6040516001600160e01b031960e084901b16815261ffff909116600482015260240160206040518083038186803b15801561111057600080fd5b505afa158015611124573d6000803e3d6000fd5b505050506040513d601f19601f820116820180604052508101906111489190612c2f565b611181576003600052600a6020527fa856840544dc26124927add067d799967eac11be13e14d82cc281ea46fa397595461ffff166111b2565b6004600052600a6020527fe1eb2b2161a492c07c5a334e48012567cba93ec021043f53c1955516a3c5a8415461ffff165b6111bc9084612c6a565b92505b806111c981612b8a565b915050610e74565b506001600160a01b03808816600081815260076020908152604080832081516080810183529485526001600160501b0342811686850190815292860188815261ffff8a16606088015282546001818101855593875295859020875160039097020180549451909216600160a01b026001600160f01b031990941695909716949094179190911783559351805193949293611272938501929190910190612617565b50606091909101516002909101805461ffff191661ffff928316179055600c80546001926000916112a591859116612c6a565b92506101000a81548161ffff021916908361ffff1602179055508561ffff1660001415611307576001600c60028282829054906101000a900461ffff166112ec9190612c6a565b92506101000a81548161ffff021916908361ffff1602179055505b7f11e10f5e517238d520ad24f0e23ad11db2d1b5410d9d37df9083ed859f3afe3a338787878787426040516113429796959493929190612cca565b60405180910390a150505050505050565b6000546001600160a01b0316331461137d5760405162461bcd60e51b815260040161063590612b13565b6108856000612562565b6000546001600160a01b031633146113b15760405162461bcd60e51b815260040161063590612b13565b6113ba81610805565b600280546001600160a01b0319166001600160a01b0392909216919091179055565b6001600160a01b0381166000908152600760209081526040808320805482518185028101850190935280835260609492939192909184015b828210156114f7576000848152602090819020604080516080810182526003860290920180546001600160a01b0381168452600160a01b90046001600160501b03168385015260018101805483518187028101870185528181529495929493860193928301828280156114ce57602002820191906000526020600020906000905b82829054906101000a900461ffff1661ffff16815260200190600201906020826001010492830192600103820291508084116114955790505b50505091835250506002919091015461ffff166020918201529082526001929092019101611414565b505050509050919050565b6000546001600160a01b0316331461152c5760405162461bcd60e51b815260040161063590612b13565b6108856125b2565b6000546001600160a01b0316331461155e5760405162461bcd60e51b815260040161063590612b13565b61ffff9182166000908152600a60205260409020805461ffff191691909216179055565b6000546001600160a01b031633146115ac5760405162461bcd60e51b815260040161063590612b13565b6001600160a01b03166000908152600860205260409020805460ff19169055565b600760205281600052604060002081815481106115e957600080fd5b6000918252602090912060039091020180546002909101546001600160a01b0382169350600160a01b9091046001600160501b0316915061ffff1683565b6000546001600160a01b031633146116515760405162461bcd60e51b815260040161063590612b13565b61ffff16600955565b6000546001600160a01b031633146116845760405162461bcd60e51b815260040161063590612b13565b61168d81610805565b600380546001600160a01b0319166001600160a01b0392909216919091179055565b600054600160a01b900460ff16156116d95760405162461bcd60e51b815260040161063590612ba5565b6001600160a01b0382166000908152600760205260408120805461ffff841690811061170757611707612b5e565b600091825260209182902060408051608081018252600390930290910180546001600160a01b03811684526001600160501b03600160a01b909104168385015260018101805483518187028101870185528181529495929493860193928301828280156117bb57602002820191906000526020600020906000905b82829054906101000a900461ffff1661ffff16815260200190600201906020826001010492830192600103820291508084116117825790505b50505091835250506002919091015461ffff1660209091015280519091506001600160a01b031633146118005760405162461bcd60e51b815260040161063590612d45565b60025460035460405163e985e9c560e01b81523060048201526001600160a01b03918216602482015291169063e985e9c590604401602060405180830381600087803b15801561184f57600080fd5b505af1158015611863573d6000803e3d6000fd5b505050506040513d601f19601f820116820180604052508101906118879190612c2f565b6118f45760025460035460405163a22cb46560e01b81526001600160a01b0391821660048201526001602482015291169063a22cb46590604401600060405180830381600087803b1580156118db57600080fd5b505af11580156118ef573d6000803e3d6000fd5b505050505b60015460035460405163e985e9c560e01b81523060048201526001600160a01b03918216602482015291169063e985e9c590604401602060405180830381600087803b15801561194357600080fd5b505af1158015611957573d6000803e3d6000fd5b505050506040513d601f19601f8201168201806040525081019061197b9190612c2f565b6119e9576001805460035460405163a22cb46560e01b81526001600160a01b0391821660048201526024810193909352169063a22cb46590604401600060405180830381600087803b1580156119d057600080fd5b505af11580156119e4573d6000803e3d6000fd5b505050505b60056000908152600a6020527ff35035bc2b01d44bd35a1dcdc552315cffb73da35cfd60570b7b777f98036f9f546060830151611a2a9161ffff1690612c6a565b61ffff16600954611a3b9190612d8a565b611a4690603c612dac565b82602001516001600160501b0316611a5e9190612cb2565b905080421015611ab05760405162461bcd60e51b815260206004820152601c60248201527f546865207368697020686173206e6f74206172726976656420796574000000006044820152606401610635565b6001600160a01b03841660009081526007602052604090208054611ad690600190612dcb565b81548110611ae657611ae6612b5e565b906000526020600020906003020160076000866001600160a01b03166001600160a01b031681526020019081526020016000208461ffff1681548110611b2e57611b2e612b5e565b60009182526020909120825460039092020180546001600160a01b039092166001600160a01b031983168117825583546001600160f01b031990931617600160a01b928390046001600160501b031690920291909117815560018083018054611b9a92840191906126c0565b506002918201549101805461ffff191661ffff9092169190911790556001600160a01b0384166000908152600760205260409020805480611bdd57611bdd612de2565b60008281526020812060036000199093019283020180546001600160f01b031916815590611c0e600183018261270e565b50600201805461ffff1916905590556003546040808401519051639284937760e01b81526001600160a01b0390921691639284937791611c5391889190600401612df8565b600060405180830381600087803b158015611c6d57600080fd5b505af1158015611c81573d6000803e3d6000fd5b505050506001826040015151611c979190612dcb565b600c8054600890611cb4908490600160401b900461ffff16612c6a565b92506101000a81548161ffff021916908361ffff1602179055506001600c60048282829054906101000a900461ffff16611cee9190612c6a565b92506101000a81548161ffff021916908361ffff1602179055506001600c60008282829054906101000a900461ffff16611d289190612e24565b92506101000a81548161ffff021916908361ffff1602179055508160400151600081518110611d5957611d59612b5e565b602002602001015161ffff1660001415611de2576001600c60028282829054906101000a900461ffff16611d8d9190612e24565b92506101000a81548161ffff021916908361ffff1602179055506001600c60068282829054906101000a900461ffff16611dc79190612c6a565b92506101000a81548161ffff021916908361ffff1602179055505b7ff8daea4facab7fcaf32fa3b22a75008bf683df132f12438fcc9cfd19fc967d8c82600001518360400151600081518110611e1f57611e1f612b5e565b6020026020010151846040015142604051611e3d9493929190612e47565b60405180910390a150505050565b6000546001600160a01b03163314611e755760405162461bcd60e51b815260040161063590612b13565b6001600160a01b038116611eda5760405162461bcd60e51b815260206004820152602660248201527f4f776e61626c653a206e6577206f776e657220697320746865207a65726f206160448201526564647265737360d01b6064820152608401610635565b611ee381612562565b50565b600054600160a01b900460ff1615611f105760405162461bcd60e51b815260040161063590612ba5565b6001600160a01b0382166000908152600760205260408120805461ffff8416908110611f3e57611f3e612b5e565b600091825260209182902060408051608081018252600390930290910180546001600160a01b03811684526001600160501b03600160a01b90910416838501526001810180548351818702810187018552818152949592949386019392830182828015611ff257602002820191906000526020600020906000905b82829054906101000a900461ffff1661ffff1681526020019060020190602082600101049283019260010382029150808411611fb95790505b50505091835250506002919091015461ffff1660209091015280519091506001600160a01b031633146120375760405162461bcd60e51b815260040161063590612d45565b60056000908152600a6020527ff35035bc2b01d44bd35a1dcdc552315cffb73da35cfd60570b7b777f98036f9f5460608301516120789161ffff1690612c6a565b61ffff166009546120899190612d8a565b61209490603c612dac565b82602001516001600160501b03166120ac9190612cb2565b9050804210156120fe5760405162461bcd60e51b815260206004820152601b60248201527f5468652062757320686173206e6f7420617272697665642079657400000000006044820152606401610635565b6001600160a01b0384166000908152600760205260409020805461212490600190612dcb565b8154811061213457612134612b5e565b906000526020600020906003020160076000866001600160a01b03166001600160a01b031681526020019081526020016000208461ffff168154811061217c5761217c612b5e565b60009182526020909120825460039092020180546001600160a01b039092166001600160a01b031983168117825583546001600160f01b031990931617600160a01b928390046001600160501b0316909202919091178155600180830180546121e892840191906126c0565b506002918201549101805461ffff191661ffff9092169190911790556001600160a01b038416600090815260076020526040902080548061222b5761222b612de2565b60008281526020812060036000199093019283020180546001600160f01b03191681559061225c600183018261270e565b50600201805461ffff1916905590556040820151805160009061228157612281612b5e565b602002602001015161ffff1660001461234957600254604083015180516001600160a01b039092169163b88d4fde9130913391906000906122c4576122c4612b5e565b60209081029190910101516040516001600160e01b031960e086901b1681526001600160a01b03938416600482015292909116602483015261ffff166044820152608060648201526000608482015260a401600060405180830381600087803b15801561233057600080fd5b505af1158015612344573d6000803e3d6000fd5b505050505b60015b82604001515181101561242157600154604084015180516001600160a01b039092169163b88d4fde9130913391908690811061238a5761238a612b5e565b60209081029190910101516040516001600160e01b031960e086901b1681526001600160a01b03938416600482015292909116602483015261ffff166044820152608060648201526000608482015260a401600060405180830381600087803b1580156123f657600080fd5b505af115801561240a573d6000803e3d6000fd5b50505050808061241990612b8a565b91505061234c565b506001600c60048282829054906101000a900461ffff166124429190612c6a565b92506101000a81548161ffff021916908361ffff1602179055506001600c60008282829054906101000a900461ffff1661247c9190612e24565b92506101000a81548161ffff021916908361ffff16021790555060018260400151516124a89190612dcb565b600c8054600890611d28908490600160401b900461ffff16612c6a565b600054600160a01b900460ff166125155760405162461bcd60e51b815260206004820152601460248201527314185d5cd8589b194e881b9bdd081c185d5cd95960621b6044820152606401610635565b6000805460ff60a01b191690557f5db9ee0a495bf2e6ff9c91a7834c1ba4fdd244a5e8aa4e537bd38aeae4b073aa335b6040516001600160a01b03909116815260200160405180910390a1565b600080546001600160a01b038381166001600160a01b0319831681178455604051919092169283917f8be0079c531659141344cd1fd0a4f28419497f9722a3daafe3b4186f6b6457e09190a35050565b600054600160a01b900460ff16156125dc5760405162461bcd60e51b815260040161063590612ba5565b6000805460ff60a01b1916600160a01b1790557f62e78cea01bee320cd4e420270b5ea74000d11b0c9f74754ebdbfc544b05a2586125453390565b82805482825590600052602060002090600f016010900481019282156126b05791602002820160005b8382111561268057835183826101000a81548161ffff021916908361ffff1602179055509260200192600201602081600101049283019260010302612640565b80156126ae5782816101000a81549061ffff0219169055600201602081600101049283019260010302612680565b505b506126bc92915061272f565b5090565b82805482825590600052602060002090600f016010900481019282156126b057600052602060002091600f016010900482015b828111156126b05782548255916001019190600101906126f3565b50805460008255600f016010900490600052602060002090810190611ee391905b5b808211156126bc5760008155600101612730565b803561ffff8116811461275657600080fd5b919050565b6000806040838503121561276e57600080fd5b61277783612744565b915061278560208401612744565b90509250929050565b6001600160a01b0381168114611ee357600080fd5b6000602082840312156127b557600080fd5b81356127c08161278e565b9392505050565b6000806000806000608086880312156127df57600080fd5b85356127ea8161278e565b945060208601356127fa8161278e565b935060408601359250606086013567ffffffffffffffff8082111561281e57600080fd5b818801915088601f83011261283257600080fd5b81358181111561284157600080fd5b89602082850101111561285357600080fd5b9699959850939650602001949392505050565b60006020828403121561287857600080fd5b6127c082612744565b60008083601f84011261289357600080fd5b50813567ffffffffffffffff8111156128ab57600080fd5b6020830191508360208260051b85010111156128c657600080fd5b9250929050565b600080602083850312156128e057600080fd5b823567ffffffffffffffff8111156128f757600080fd5b61290385828601612881565b90969095509350505050565b6020808252825182820181905260009190848201906040850190845b8181101561294957835115158352928401929184019160010161292b565b50909695505050505050565b60008060008060006080868803121561296d57600080fd5b85356129788161278e565b945061298660208701612744565b9350604086013567ffffffffffffffff8111156129a257600080fd5b6129ae88828901612881565b90945092506129c1905060608701612744565b90509295509295909350565b6000602082840312156129df57600080fd5b5035919050565b600081518084526020808501945080840160005b83811015612a1a57815161ffff16875295820195908201906001016129fa565b509495945050505050565b60006020808301818452808551808352604092508286019150828160051b87010184880160005b83811015612abb57888303603f19018552815180516001600160a01b03168452878101516001600160501b03168885015286810151608088860181905290612a96828701826129e6565b60609384015161ffff1696909301959095525094870194925090860190600101612a4c565b509098975050505050505050565b60008060408385031215612adc57600080fd5b8235612ae78161278e565b946020939093013593505050565b60008060408385031215612b0857600080fd5b82356127778161278e565b6020808252818101527f4f776e61626c653a2063616c6c6572206973206e6f7420746865206f776e6572604082015260600190565b634e487b7160e01b600052604160045260246000fd5b634e487b7160e01b600052603260045260246000fd5b634e487b7160e01b600052601160045260246000fd5b6000600019821415612b9e57612b9e612b74565b5060010190565b60208082526010908201526f14185d5cd8589b194e881c185d5cd95960821b604082015260600190565b600060208284031215612be157600080fd5b81516127c08161278e565b60208082526023908201527f54686973204e544620646f6573206e6f742062656c6f6e6720746f206164647260408201526265737360e81b606082015260800190565b600060208284031215612c4157600080fd5b815180151581146127c057600080fd5b600060208284031215612c6357600080fd5b5051919050565b600061ffff808316818516808303821115612c8757612c87612b74565b01949350505050565b600061ffff80831681811415612ca857612ca8612b74565b6001019392505050565b60008219821115612cc557612cc5612b74565b500190565b6001600160a01b038816815261ffff87811660208084019190915260c060408401819052830187905260009188919060e08501845b8a811015612d245782612d1186612744565b1682529383019390830190600101612cff565b509781166060860152959095166080840152505060a0015250949350505050565b60208082526025908201527f54686973207374616b6520646f6573206e6f742062656c6f6e6720746f206164604082015264647265737360d81b606082015260800190565b600082612da757634e487b7160e01b600052601260045260246000fd5b500490565b6000816000190483118215151615612dc657612dc6612b74565b500290565b600082821015612ddd57612ddd612b74565b500390565b634e487b7160e01b600052603160045260246000fd5b6001600160a01b0383168152604060208201819052600090612e1c908301846129e6565b949350505050565b600061ffff83811690831681811015612e3f57612e3f612b74565b039392505050565b6001600160a01b038516815261ffff84166020820152608060408201819052600090612e75908301856129e6565b90508260608301529594505050505056fea26469706673582212207d68af88446514bc672e609b8f0f9b4114c6e77acfb1b699f31d079c4116380b64736f6c63430008090033",
  "linkReferences": {},
  "deployedLinkReferences": {}
}